{
  "contractName": "EthStakingPool",
  "abi": [
    {
      "inputs": [],
      "stateMutability": "nonpayable",
      "type": "constructor"
    },
    {
      "anonymous": false,
      "inputs": [
        {
          "indexed": false,
          "internalType": "address",
          "name": "account",
          "type": "address"
        },
        {
          "indexed": false,
          "internalType": "uint256",
          "name": "amount",
          "type": "uint256"
        }
      ],
      "name": "Claim",
      "type": "event"
    },
    {
      "anonymous": false,
      "inputs": [
        {
          "indexed": false,
          "internalType": "bytes",
          "name": "pubkey",
          "type": "bytes"
        },
        {
          "indexed": false,
          "internalType": "bytes",
          "name": "withdrawal_credentials",
          "type": "bytes"
        },
        {
          "indexed": false,
          "internalType": "bytes",
          "name": "signature",
          "type": "bytes"
        },
        {
          "indexed": false,
          "internalType": "bytes32",
          "name": "deposit_data_root",
          "type": "bytes32"
        },
        {
          "indexed": false,
          "internalType": "uint256",
          "name": "timestamp",
          "type": "uint256"
        }
      ],
      "name": "Deposit",
      "type": "event"
    },
    {
      "anonymous": false,
      "inputs": [
        {
          "indexed": false,
          "internalType": "address",
          "name": "account",
          "type": "address"
        },
        {
          "indexed": false,
          "internalType": "uint256",
          "name": "amount",
          "type": "uint256"
        }
      ],
      "name": "EthReceived",
      "type": "event"
    },
    {
      "anonymous": false,
      "inputs": [
        {
          "indexed": false,
          "internalType": "address",
          "name": "account",
          "type": "address"
        },
        {
          "indexed": false,
          "internalType": "uint256",
          "name": "timestamp",
          "type": "uint256"
        }
      ],
      "name": "Finalize",
      "type": "event"
    },
    {
      "inputs": [],
      "name": "DEPOSIT_AMOUNT",
      "outputs": [
        {
          "internalType": "uint256",
          "name": "",
          "type": "uint256"
        }
      ],
      "stateMutability": "view",
      "type": "function",
      "constant": true
    },
    {
      "inputs": [],
      "name": "NAME",
      "outputs": [
        {
          "internalType": "string",
          "name": "",
          "type": "string"
        }
      ],
      "stateMutability": "view",
      "type": "function",
      "constant": true
    },
    {
      "inputs": [
        {
          "internalType": "address",
          "name": "",
          "type": "address"
        }
      ],
      "name": "balances",
      "outputs": [
        {
          "internalType": "uint256",
          "name": "",
          "type": "uint256"
        }
      ],
      "stateMutability": "view",
      "type": "function",
      "constant": true
    },
    {
      "inputs": [],
      "name": "deadline",
      "outputs": [
        {
          "internalType": "uint256",
          "name": "",
          "type": "uint256"
        }
      ],
      "stateMutability": "view",
      "type": "function",
      "constant": true
    },
    {
      "inputs": [],
      "name": "finalized",
      "outputs": [
        {
          "internalType": "bool",
          "name": "",
          "type": "bool"
        }
      ],
      "stateMutability": "view",
      "type": "function",
      "constant": true
    },
    {
      "inputs": [
        {
          "internalType": "address",
          "name": "",
          "type": "address"
        }
      ],
      "name": "hasClaimed",
      "outputs": [
        {
          "internalType": "bool",
          "name": "",
          "type": "bool"
        }
      ],
      "stateMutability": "view",
      "type": "function",
      "constant": true
    },
    {
      "inputs": [
        {
          "internalType": "bytes",
          "name": "",
          "type": "bytes"
        }
      ],
      "name": "hasDeposited",
      "outputs": [
        {
          "internalType": "bool",
          "name": "",
          "type": "bool"
        }
      ],
      "stateMutability": "view",
      "type": "function",
      "constant": true
    },
    {
      "inputs": [],
      "name": "owner",
      "outputs": [
        {
          "internalType": "address payable",
          "name": "",
          "type": "address"
        }
      ],
      "stateMutability": "view",
      "type": "function",
      "constant": true
    },
    {
      "inputs": [],
      "name": "weiLeftover",
      "outputs": [
        {
          "internalType": "uint256",
          "name": "",
          "type": "uint256"
        }
      ],
      "stateMutability": "view",
      "type": "function",
      "constant": true
    },
    {
      "inputs": [],
      "name": "weiRaised",
      "outputs": [
        {
          "internalType": "uint256",
          "name": "",
          "type": "uint256"
        }
      ],
      "stateMutability": "view",
      "type": "function",
      "constant": true
    },
    {
      "stateMutability": "payable",
      "type": "receive",
      "payable": true
    },
    {
      "inputs": [],
      "name": "finalize",
      "outputs": [],
      "stateMutability": "nonpayable",
      "type": "function"
    },
    {
      "inputs": [],
      "name": "claim",
      "outputs": [],
      "stateMutability": "nonpayable",
      "type": "function"
    },
    {
      "inputs": [
        {
          "internalType": "bytes",
          "name": "pubkey",
          "type": "bytes"
        },
        {
          "internalType": "bytes",
          "name": "withdrawal_credentials",
          "type": "bytes"
        },
        {
          "internalType": "bytes",
          "name": "signature",
          "type": "bytes"
        },
        {
          "internalType": "bytes32",
          "name": "deposit_data_root",
          "type": "bytes32"
        }
      ],
      "name": "deposit",
      "outputs": [],
      "stateMutability": "nonpayable",
      "type": "function"
    }
  ],
  "bytecode": "0x60806040526f219ab540356cbb839cbe05303d7705fa6000806101000a81548173ffffffffffffffffffffffffffffffffffffffff021916908373ffffffffffffffffffffffffffffffffffffffff1602179055506801bc16d674ec8000006001556040518060400160405280601081526020017f455448205374616b696e6720506f6f6c00000000000000000000000000000000815250600290805190602001906100ac929190610126565b506000600660006101000a81548160ff0219169083151502179055503480156100d457600080fd5b5033600660016101000a81548173ffffffffffffffffffffffffffffffffffffffff021916908373ffffffffffffffffffffffffffffffffffffffff160217905550636010ad006009819055506101c3565b828054600181600116156101000203166002900490600052602060002090601f016020900481019282601f1061016757805160ff1916838001178555610195565b82800160010185558215610195579182015b82811115610194578251825591602001919060010190610179565b5b5090506101a291906101a6565b5090565b5b808211156101bf5760008160009055506001016101a7565b5090565b61122580620001d36000396000f3fe6080604052600436106100c65760003560e01c806373b2e80e1161007f578063b3f05b9711610059578063b3f05b97146105d1578063cdf7cc50146105fe578063da8bc4a514610629578063ec6925a71461070757610271565b806373b2e80e146104995780638da5cb5b14610500578063a3f4df7e1461054157610271565b8063228951181461027657806327e235e3146103b057806329dcb0cf146104155780634042b66f146104405780634bb278f31461046b5780634e71d92d1461048257610271565b3661027157600954421115610143576040517f08c379a00000000000000000000000000000000000000000000000000000000081526004018080602001828103825260178152602001807f6d757374206265206265666f726520646561646c696e6500000000000000000081525060200191505060405180910390fd5b60011515600660009054906101000a900460ff16151514156101cd576040517f08c379a00000000000000000000000000000000000000000000000000000000081526004018080602001828103825260138152602001807f63616e6e6f742062652066696e616c697a65640000000000000000000000000081525060200191505060405180910390fd5b34600360003373ffffffffffffffffffffffffffffffffffffffff1673ffffffffffffffffffffffffffffffffffffffff168152602001908152602001600020600082825401925050819055507f85177f287940f2f05425a4029951af0e047a7f9c4eaa9a6e6917bcd869f866953334604051808373ffffffffffffffffffffffffffffffffffffffff1681526020018281526020019250505060405180910390a1005b600080fd5b34801561028257600080fd5b506103ae6004803603608081101561029957600080fd5b81019080803590602001906401000000008111156102b657600080fd5b8201836020820111156102c857600080fd5b803590602001918460018302840111640100000000831117156102ea57600080fd5b90919293919293908035906020019064010000000081111561030b57600080fd5b82018360208201111561031d57600080fd5b8035906020019184600183028401116401000000008311171561033f57600080fd5b90919293919293908035906020019064010000000081111561036057600080fd5b82018360208201111561037257600080fd5b8035906020019184600183028401116401000000008311171561039457600080fd5b909192939192939080359060200190929190505050610732565b005b3480156103bc57600080fd5b506103ff600480360360208110156103d357600080fd5b81019080803573ffffffffffffffffffffffffffffffffffffffff169060200190929190505050610b95565b6040518082815260200191505060405180910390f35b34801561042157600080fd5b5061042a610bad565b6040518082815260200191505060405180910390f35b34801561044c57600080fd5b50610455610bb3565b6040518082815260200191505060405180910390f35b34801561047757600080fd5b50610480610bb9565b005b34801561048e57600080fd5b50610497610d47565b005b3480156104a557600080fd5b506104e8600480360360208110156104bc57600080fd5b81019080803573ffffffffffffffffffffffffffffffffffffffff169060200190929190505050611095565b60405180821515815260200191505060405180910390f35b34801561050c57600080fd5b506105156110b5565b604051808273ffffffffffffffffffffffffffffffffffffffff16815260200191505060405180910390f35b34801561054d57600080fd5b506105566110db565b6040518080602001828103825283818151815260200191508051906020019080838360005b8381101561059657808201518184015260208101905061057b565b50505050905090810190601f1680156105c35780820380516001836020036101000a031916815260200191505b509250505060405180910390f35b3480156105dd57600080fd5b506105e6611179565b60405180821515815260200191505060405180910390f35b34801561060a57600080fd5b5061061361118c565b6040518082815260200191505060405180910390f35b34801561063557600080fd5b506106ef6004803603602081101561064c57600080fd5b810190808035906020019064010000000081111561066957600080fd5b82018360208201111561067b57600080fd5b8035906020019184600183028401116401000000008311171561069d57600080fd5b91908080601f016020809104026020016040519081016040528093929190818152602001838380828437600081840152601f19601f820116905080830192505050505050509192919290505050611192565b60405180821515815260200191505060405180910390f35b34801561071357600080fd5b5061071c6111c8565b6040518082815260200191505060405180910390f35b600660019054906101000a900473ffffffffffffffffffffffffffffffffffffffff1673ffffffffffffffffffffffffffffffffffffffff163373ffffffffffffffffffffffffffffffffffffffff16146107f5576040517f08c379a000000000000000000000000000000000000000000000000000000000815260040180806020018281038252600d8152602001807f6d757374206265206f776e65720000000000000000000000000000000000000081525060200191505060405180910390fd5b60011515600660009054906101000a900460ff1615151461087e576040517f08c379a00000000000000000000000000000000000000000000000000000000081526004018080602001828103825260118152602001807f6d7573742062652066696e616c697a656400000000000000000000000000000081525060200191505060405180910390fd5b6001544710156108d9576040517f08c379a00000000000000000000000000000000000000000000000000000000081526004018080602001828103825260218152602001806111cf6021913960400191505060405180910390fd5b6000151560058888604051808383808284378083019250505092505050908152602001604051809103902060009054906101000a900460ff16151514610987576040517f08c379a00000000000000000000000000000000000000000000000000000000081526004018080602001828103825260118152602001807f616c7265616479206465706f736974656400000000000000000000000000000081525060200191505060405180910390fd5b60008054906101000a900473ffffffffffffffffffffffffffffffffffffffff1673ffffffffffffffffffffffffffffffffffffffff166322895118600154898989898989896040518963ffffffff1660e01b81526004018080602001806020018060200185815260200184810384528b8b82818152602001925080828437600081840152601f19601f8201169050808301925050508481038352898982818152602001925080828437600081840152601f19601f8201169050808301925050508481038252878782818152602001925080828437600081840152601f19601f8201169050808301925050509a50505050505050505050506000604051808303818588803b158015610a9857600080fd5b505af1158015610aac573d6000803e3d6000fd5b50505050507f52899a5d865569c10275b353ac2a45f6a60dd9e080588be17465ed25d52d71da87878787878787426040518080602001806020018060200186815260200185815260200184810384528c8c82818152602001925080828437600081840152601f19601f82011690508083019250505084810383528a8a82818152602001925080828437600081840152601f19601f8201169050808301925050508481038252888882818152602001925080828437600081840152601f19601f8201169050808301925050509b50505050505050505050505060405180910390a150505050505050565b60036020528060005260406000206000915090505481565b60095481565b60085481565b6009544211610c30576040517f08c379a00000000000000000000000000000000000000000000000000000000081526004018080602001828103825260168152602001807f6d75737420626520616674657220646561646c696e650000000000000000000081525060200191505060405180910390fd5b60011515600660009054906101000a900460ff1615151415610cba576040517f08c379a00000000000000000000000000000000000000000000000000000000081526004018080602001828103825260138152602001807f63616e6e6f742062652066696e616c697a65640000000000000000000000000081525060200191505060405180910390fd5b6001600660006101000a81548160ff0219169083151502179055504760088190555060015460085481610ce957fe5b066007819055507fd0e5eaaad928655181d43ca1fb4d47483e60e23e9c17f165728d9979d2d9b93a3342604051808373ffffffffffffffffffffffffffffffffffffffff1681526020018281526020019250505060405180910390a1565b60011515600660009054906101000a900460ff16151514610dd0576040517f08c379a00000000000000000000000000000000000000000000000000000000081526004018080602001828103825260118152602001807f6d7573742062652066696e616c697a656400000000000000000000000000000081525060200191505060405180910390fd5b6000600360003373ffffffffffffffffffffffffffffffffffffffff1673ffffffffffffffffffffffffffffffffffffffff1681526020019081526020016000205411610e85576040517f08c379a000000000000000000000000000000000000000000000000000000000815260040180806020018281038252601e8152602001807f62616c616e6365206d7573742062652067726561746572207468616e2030000081525060200191505060405180910390fd5b60001515600460003373ffffffffffffffffffffffffffffffffffffffff1673ffffffffffffffffffffffffffffffffffffffff16815260200190815260200160002060009054906101000a900460ff16151514610f4b576040517f08c379a000000000000000000000000000000000000000000000000000000000815260040180806020018281038252600f8152602001807f616c726561647920636c61696d6564000000000000000000000000000000000081525060200191505060405180910390fd5b6001600460003373ffffffffffffffffffffffffffffffffffffffff1673ffffffffffffffffffffffffffffffffffffffff16815260200190815260200160002060006101000a81548160ff0219169083151502179055506000600854600360003373ffffffffffffffffffffffffffffffffffffffff1673ffffffffffffffffffffffffffffffffffffffff168152602001908152602001600020546007540281610ff357fe5b0490503373ffffffffffffffffffffffffffffffffffffffff166108fc829081150290604051600060405180830381858888f1935050505015801561103c573d6000803e3d6000fd5b507f47cee97cb7acd717b3c0aa1435d004cd5b3c8c57d70dbceb4e4458bbd60e39d43382604051808373ffffffffffffffffffffffffffffffffffffffff1681526020018281526020019250505060405180910390a150565b60046020528060005260406000206000915054906101000a900460ff1681565b600660019054906101000a900473ffffffffffffffffffffffffffffffffffffffff1681565b60028054600181600116156101000203166002900480601f0160208091040260200160405190810160405280929190818152602001828054600181600116156101000203166002900480156111715780601f1061114657610100808354040283529160200191611171565b820191906000526020600020905b81548152906001019060200180831161115457829003601f168201915b505050505081565b600660009054906101000a900460ff1681565b60075481565b6005818051602081018201805184825260208301602085012081835280955050505050506000915054906101000a900460ff1681565b6001548156fe4572726f722c206465706f73697420616d6f756e74206e6f742072656163686564a2646970667358221220c47318d2db8813d0b98fc820849566a3c6e7f728f45759b904d96b906b88004164736f6c634300060c0033",
  "immutableReferences": {},
  "source": "pragma solidity ^0.6.6;\r\n\r\ninterface DepositContract {\r\n    function deposit(\r\n        bytes calldata pubkey,\r\n        bytes calldata withdrawal_credentials,\r\n        bytes calldata signature,\r\n        bytes32 deposit_data_root\r\n    ) external payable;\r\n}\r\n\r\ncontract EthStakingPool {\r\n    address DEPOSIT_CONTRACT = 0x00000000219ab540356cBB839Cbe05303d7705Fa;\r\n    uint256 public DEPOSIT_AMOUNT = 32 ether;\r\n    string public NAME = \"ETH Staking Pool\";\r\n\r\n    mapping(address => uint256) public balances;\r\n    mapping(address => bool) public hasClaimed;\r\n    mapping(bytes => bool) public hasDeposited;\r\n\r\n    bool public finalized = false;\r\n    address payable public owner;\r\n    uint256 public weiLeftover;\r\n    uint256 public weiRaised;\r\n    uint256 public deadline;\r\n\r\n    event EthReceived(address account, uint256 amount);\r\n    event Finalize(address account, uint256 timestamp);\r\n    event Claim(address account, uint256 amount);\r\n\r\n    event Deposit(\r\n        bytes pubkey,\r\n        bytes withdrawal_credentials,\r\n        bytes signature,\r\n        bytes32 deposit_data_root,\r\n        uint256 timestamp\r\n    );\r\n\r\n    modifier onlyOwner() {\r\n        require(msg.sender == owner, \"must be owner\");\r\n        _;\r\n    }\r\n\r\n    modifier beforeDeadline() {\r\n        require(block.timestamp <= deadline, \"must be before deadline\");\r\n        _;\r\n    }\r\n\r\n    modifier afterDeadline() {\r\n        require(block.timestamp > deadline, \"must be after deadline\");\r\n        _;\r\n    }\r\n\r\n    modifier notFinalized() {\r\n        require(finalized != true, \"cannot be finalized\");\r\n        _;\r\n    }\r\n\r\n    modifier isFinalized() {\r\n        require(finalized == true, \"must be finalized\");\r\n        _;\r\n    }\r\n\r\n    constructor() public {\r\n        owner = msg.sender;\r\n        //deadline = block.timestamp + 30 days;\r\n        deadline = 1611705600; // 01/27/2021 @ 12:00am (UTC)\r\n    }\r\n\r\n    receive() external payable beforeDeadline notFinalized {\r\n        balances[msg.sender] += msg.value;\r\n        emit EthReceived(msg.sender, msg.value);\r\n    }\r\n\r\n    //Finalize also possible for random user?\r\n    function finalize() public afterDeadline notFinalized {\r\n        finalized = true;\r\n        weiRaised = address(this).balance;\r\n        weiLeftover = weiRaised % DEPOSIT_AMOUNT;\r\n        emit Finalize(msg.sender, now);\r\n    }\r\n\r\n    function claim() external isFinalized {\r\n        require(balances[msg.sender] > 0, \"balance must be greater than 0\");\r\n        require(hasClaimed[msg.sender] == false, \"already claimed\");\r\n        hasClaimed[msg.sender] = true;\r\n        uint256 amount = (weiLeftover * balances[msg.sender]) / weiRaised;\r\n        msg.sender.transfer(amount);\r\n        emit Claim(msg.sender, amount);\r\n    }\r\n\r\n    //has deposited shouldn't be switched to true?\r\n    function deposit(\r\n        bytes calldata pubkey,\r\n        bytes calldata withdrawal_credentials,\r\n        bytes calldata signature,\r\n        bytes32 deposit_data_root\r\n    ) external onlyOwner isFinalized {\r\n        require(address(this).balance >= DEPOSIT_AMOUNT, \"Error, deposit amount not reached\");\r\n        require(hasDeposited[pubkey] == false, \"already deposited\");\r\n\r\n        DepositContract(DEPOSIT_CONTRACT).deposit{value: DEPOSIT_AMOUNT}(\r\n            pubkey,\r\n            withdrawal_credentials,\r\n            signature,\r\n            deposit_data_root\r\n        );\r\n\r\n        emit Deposit(\r\n            pubkey,\r\n            withdrawal_credentials,\r\n            signature,\r\n            deposit_data_root,\r\n            now\r\n        );\r\n    }\r\n}",
  "sourcePath": "/mnt/c/pr0/staking/src/backEnd/contracts/EthStakingPool.sol",
  "compiler": {
    "name": "solc",
    "version": "0.6.12+commit.27d51765.Emscripten.clang"
  },
  "schemaVersion": "3.3.2",
  "updatedAt": "2020-12-31T12:04:45.928Z",
  "networkType": "ethereum",
  "devdoc": {
    "kind": "dev",
    "methods": {},
    "version": 1
  },
  "userdoc": {
    "kind": "user",
    "methods": {},
    "version": 1
  }
}